{
  "_format": "hh-sol-artifact-1",
  "contractName": "GameRewards",
  "sourceName": "src/contracts/GameRewards.sol",
  "abi": [
    {
      "anonymous": false,
      "inputs": [
        {
          "indexed": true,
          "internalType": "address",
          "name": "player",
          "type": "address"
        },
        {
          "indexed": false,
          "internalType": "uint256",
          "name": "amount",
          "type": "uint256"
        }
      ],
      "name": "DepositMade",
      "type": "event"
    },
    {
      "anonymous": false,
      "inputs": [
        {
          "indexed": true,
          "internalType": "address",
          "name": "player",
          "type": "address"
        },
        {
          "indexed": false,
          "internalType": "uint256",
          "name": "amount",
          "type": "uint256"
        }
      ],
      "name": "RewardClaimed",
      "type": "event"
    },
    {
      "anonymous": false,
      "inputs": [
        {
          "indexed": true,
          "internalType": "address",
          "name": "player",
          "type": "address"
        },
        {
          "indexed": false,
          "internalType": "uint256",
          "name": "score",
          "type": "uint256"
        },
        {
          "indexed": false,
          "internalType": "uint256",
          "name": "timestamp",
          "type": "uint256"
        }
      ],
      "name": "ScoreSubmitted",
      "type": "event"
    },
    {
      "inputs": [],
      "name": "MIN_DEPOSIT",
      "outputs": [
        {
          "internalType": "uint256",
          "name": "",
          "type": "uint256"
        }
      ],
      "stateMutability": "view",
      "type": "function"
    },
    {
      "inputs": [],
      "name": "REWARD_THRESHOLD",
      "outputs": [
        {
          "internalType": "uint256",
          "name": "",
          "type": "uint256"
        }
      ],
      "stateMutability": "view",
      "type": "function"
    },
    {
      "inputs": [],
      "name": "deposit",
      "outputs": [],
      "stateMutability": "payable",
      "type": "function"
    },
    {
      "inputs": [],
      "name": "getBalance",
      "outputs": [
        {
          "internalType": "uint256",
          "name": "",
          "type": "uint256"
        }
      ],
      "stateMutability": "view",
      "type": "function"
    },
    {
      "inputs": [
        {
          "internalType": "uint256",
          "name": "limit",
          "type": "uint256"
        }
      ],
      "name": "getTopScores",
      "outputs": [
        {
          "components": [
            {
              "internalType": "address",
              "name": "player",
              "type": "address"
            },
            {
              "internalType": "uint256",
              "name": "score",
              "type": "uint256"
            },
            {
              "internalType": "uint256",
              "name": "timestamp",
              "type": "uint256"
            }
          ],
          "internalType": "struct GameRewards.PlayerScore[]",
          "name": "",
          "type": "tuple[]"
        }
      ],
      "stateMutability": "view",
      "type": "function"
    },
    {
      "inputs": [
        {
          "internalType": "uint256",
          "name": "",
          "type": "uint256"
        }
      ],
      "name": "leaderboard",
      "outputs": [
        {
          "internalType": "address",
          "name": "player",
          "type": "address"
        },
        {
          "internalType": "uint256",
          "name": "score",
          "type": "uint256"
        },
        {
          "internalType": "uint256",
          "name": "timestamp",
          "type": "uint256"
        }
      ],
      "stateMutability": "view",
      "type": "function"
    },
    {
      "inputs": [
        {
          "internalType": "address",
          "name": "",
          "type": "address"
        }
      ],
      "name": "playerBalances",
      "outputs": [
        {
          "internalType": "uint256",
          "name": "",
          "type": "uint256"
        }
      ],
      "stateMutability": "view",
      "type": "function"
    },
    {
      "inputs": [
        {
          "internalType": "uint256",
          "name": "_score",
          "type": "uint256"
        }
      ],
      "name": "submitScore",
      "outputs": [],
      "stateMutability": "nonpayable",
      "type": "function"
    }
  ],
  "bytecode": "0x608060405234801561001057600080fd5b50610766806100206000396000f3fe60806040526004361061007b5760003560e01c8063bf3683991161004e578063bf3683991461012d578063d0e30db014610172578063e1e158a51461017a578063e7bdba321461019557600080fd5b806312065fe0146100805780637b38314c146100b1578063968ffe34146100de578063aff0b2971461010b575b600080fd5b34801561008c57600080fd5b50336000908152602081905260409020545b6040519081526020015b60405180910390f35b3480156100bd57600080fd5b5061009e6100cc3660046105de565b60006020819052908152604090205481565b3480156100ea57600080fd5b506100fe6100f936600461060e565b6101ab565b6040516100a89190610627565b34801561011757600080fd5b5061012b61012636600461060e565b6102dd565b005b34801561013957600080fd5b5061014d61014836600461060e565b6104ca565b604080516001600160a01b0390941684526020840192909252908201526060016100a8565b61012b610507565b34801561018657600080fd5b5061009e662386f26fc1000081565b3480156101a157600080fd5b5061009e6103e881565b60015460609060009083106101c2576001546101c4565b825b905060008167ffffffffffffffff8111156101e1576101e1610689565b60405190808252806020026020018201604052801561023f57816020015b61022c604051806060016040528060006001600160a01b0316815260200160008152602001600081525090565b8152602001906001900390816101ff5790505b50905060005b828110156102d557600181815481106102605761026061069f565b600091825260209182902060408051606081018252600390930290910180546001600160a01b031683526001810154938301939093526002909201549181019190915282518390839081106102b7576102b761069f565b602002602001018190525080806102cd906106cb565b915050610245565b509392505050565b3360009081526020819052604090205461033e5760405162461bcd60e51b815260206004820152601860248201527f4d757374206861766520616374697665206465706f736974000000000000000060448201526064015b60405180910390fd5b60408051606081018252338152602081018381524292820192835260018054808201825560009190915291517fb10e2d527612073b26eecdfd717e6a320cf44b4afac2b0732d9fcbe2b7fa0cf6600390930292830180546001600160a01b0319166001600160a01b03909216919091179055517fb10e2d527612073b26eecdfd717e6a320cf44b4afac2b0732d9fcbe2b7fa0cf782015590517fb10e2d527612073b26eecdfd717e6a320cf44b4afac2b0732d9fcbe2b7fa0cf8909101556103e8811061048d576000610410826105b9565b90506000811180156104225750478111155b1561048b57604051339082156108fc029083906000818181858888f19350505050158015610454573d6000803e3d6000fd5b5060405181815233907f106f923f993c2149d49b4255ff723acafa1f2d94393f561d3eda32ae348f72419060200160405180910390a25b505b6040805182815242602082015233917fb7f20d0949b6a8bc59d005af4a52f7ff5d0cfcde9056fa556adb0e4b24dcb6d2910160405180910390a250565b600181815481106104da57600080fd5b60009182526020909120600390910201805460018201546002909201546001600160a01b03909116925083565b662386f26fc1000034101561055e5760405162461bcd60e51b815260206004820152601760248201527f4d696e696d756d206465706f736974206e6f74206d65740000000000000000006044820152606401610335565b336000908152602081905260408120805434929061057d9084906106e4565b909155505060405134815233907fd15c9547ea5c06670c0010ce19bc32d54682a4b3801ece7f3ab0c3f17106b4bb9060200160405180910390a2565b60006105c76103e8836106f7565b6105d89066038d7ea4c68000610719565b92915050565b6000602082840312156105f057600080fd5b81356001600160a01b038116811461060757600080fd5b9392505050565b60006020828403121561062057600080fd5b5035919050565b602080825282518282018190526000919060409081850190868401855b8281101561067c57815180516001600160a01b0316855286810151878601528501518585015260609093019290850190600101610644565b5091979650505050505050565b634e487b7160e01b600052604160045260246000fd5b634e487b7160e01b600052603260045260246000fd5b634e487b7160e01b600052601160045260246000fd5b6000600182016106dd576106dd6106b5565b5060010190565b808201808211156105d8576105d86106b5565b60008261071457634e487b7160e01b600052601260045260246000fd5b500490565b80820281158282048414176105d8576105d86106b556fea2646970667358221220b04e4f6a4a6b2ba080b10e40173dfd4139d828bb4868aac76ec91d1ef8940df564736f6c63430008140033",
  "linkReferences": {},
  "deployedLinkReferences": {}
}